:1000000035C1000052C1000050C100004EC10000C7
:100010004CC100004AC1000048C1000046C10000B8
:1000200044C1000042C1000040C100003EC10000C8
:100030003CC100000C94440838C1000036C10000E7
:1000400034C1000032C1000030C100002EC10000E8
:100050002CC100002AC1000028C1000026C10000F8
:1000600024C1000022C1000020C100001EC1000008
:100070001CC100001AC1000018C1000016C1000018
:1000800014C1000012C1000010C1000000000000F7
:100090000000005F00000007000700147F147F14B9
:1000A000242A7F2A122313086462364955225000FD
:1000B00005030000001C2241000041221C00082A08
:1000C0001C2A0808083E08080050300000080808EC
:1000D0000808006060000020100804023E514945F5
:1000E0003E00427F400042615149462141454B312B
:1000F0001814127F1027454545393C4A49493001BB
:10010000710905033649494936064949291E003611
:100110003600000056360000000814224114141462
:100120001414412214080002015109063249794190
:100130003E7E1111117E7F494949363E414141229F
:100140007F4141221C7F494949417F090901013E04
:10015000414151327F0808087F00417F4100204023
:10016000413F017F081422417F404040407F02040C
:10017000027F7F0408107F3E4141413E7F0909090B
:10018000063E4151215E7F091929464649494931B8
:1001900001017F01013F4040403F1F2040201F7F61
:1001A0002018207F6314081463030478040361514A
:1001B00049454300007F4141020408102041417F2E
:1001C00000000402010204404040404000010204DB
:1001D0000020545454787F484444383844444420E0
:1001E000384444487F3854545418087E09010208A2
:1001F0001454543C7F0804047800447D400020409F
:10020000443D00007F10284400417F40007C0418DA
:1002100004787C0804047838444444387C1414146A
:1002200008081414187C7C0804040848545454200A
:10023000043F4440203C4040207C1C2040201C3C8B
:100240004030403C44281028440C5050503C4464FA
:10025000544C44000836410000007F000000413645
:10026000080008082A1C08081C2A080811241FBEB8
:10027000CFEFD0E4DEBFCDBF11E0A0E0B1E0ECE015
:10028000FAE200E00BBF02C007900D92AA3EB10750
:10029000D9F724E0AAEEB1E001C01D92AA30B2075E
:1002A000E1F70E9442120C940415AACEFC010FB68D
:1002B000F89460910604709107048091080490916D
:1002C00009040FBE309721F060837183828393838A
:1002D0000895CF93DF93CDB7DEB781E01AD0000049
:1002E000DF91CF910895CF93DF93CDB7DEB784E64A
:1002F00090E0ACD088E30DD086E00BD08FE009D041
:1003000081E007D08AE090E0A1D00000DF91CF919A
:100310000895CF93DF931F92CDB7DEB789838BE229
:1003200090E02BE230E0F90120812F7BFC0120835B
:1003300088E290E02981FC0120838BE290E02BE2AF
:1003400030E0F90120812068FC01208300008BE26D
:1003500090E02BE230E0F90120812F77FC0120832F
:1003600082E090E073D000000F90DF91CF9108956C
:10037000CF93DF931F92CDB7DEB789838BE290E0F6
:100380002BE230E0F90120812064FC01208388E227
:1003900090E02981FC0120838BE290E02BE230E0A9
:1003A000F90120812068FC01208300008BE290E0AD
:1003B0002BE230E0F90120812F77FC01208381E0DE
:1003C00090E044D000000F90DF91CF910895CF933B
:1003D000DF9300D000D0CDB7DEB78A837C836B83F8
:1003E00078DF8A8189830FC0898191E0980F998392
:1003F00018D08B819C819C012F5F3F4F3C832B83C6
:10040000FC018081B5DF8B819C81FC018081882388
:1004100059F700000F900F900F900F90DF91CF9140
:100420000895CF93DF931F92CDB7DEB7898389817B
:10043000813120F4898181586CDF03C08981815525
:1004400068DF00000F90DF91CF910895CF93DF9385
:1004500000D000D000D0CDB7DEB79E838D831A8246
:10046000198213C01C821B8206C000008B819C81F4
:1004700001969C838B838B819C8187309340ACF366
:1004800089819A8101969A83898329813A818D8114
:100490009E812817390734F3000026960FB6F8948A
:1004A000DEBF0FBECDBFDF91CF910895CF93DF9315
:1004B00000D000D0CDB7DEB78A837C836B838A817E
:1004C0008830D0F48A81882F90E00896880F880FB2
:1004D000880F1FDF19820DC08981882F90E02B8142
:1004E0003C81820F931FFC01808142DF89818F5FF5
:1004F00089838981883080F300000F900F900F90DE
:100500000F90DF91CF910895CF93DF93CDB7DEB7F2
:1005100084E290E024E230E0F90120812061FC01D6
:10052000208384E290E024E230E0F901208120621F
:10053000FC01208384E290E024E230E0F901208194
:100540002061FC01208384E290E024E230E0F901A4
:1005500020812068FC01208384E290E024E230E0E6
:10056000F90120812061FC01208384E290E024E2F3
:1005700030E0F90120812260FC01208384E290E0D8
:1005800024E230E0F90120812160FC01208385E232
:1005900090E025E230E0F90120812061FC01208318
:1005A0008CE490E020E5FC0120838DE490E0FC01E8
:1005B000108297D165EF71E089EF91E05CD22CD287
:1005C0000000DF91CF910895CF93DF931F92CDB7B5
:1005D000DEB7898385E290E025E230E0F9012081F1
:1005E0002F7EFC0120838EE490E02981FC01208392
:1005F00000008DE490E0FC0180818823D4F785E23F
:1006000090E025E230E0F90120812061FC012083A7
:1006100000000F90DF91CF910895CF93DF93CDB776
:10062000DEB72E970FB6F894DEBF0FBECDBF85E2C2
:1006300090E025E230E0F90120812F7EFC0120834B
:1006400085E290E025E230E0F90120812E7FFC0177
:10065000208380E090E0A0E8BFE389839A83AB83A6
:10066000BC8320E030E04AE753E469817A818B81E2
:100670009C810E943713DC01CB018D839E83AF8365
:10068000B88720E030E040E85FE36D817E818F81B4
:1006900098850E94B61288232CF481E090E09A8716
:1006A00089873FC020E03FEF4FE757E46D817E81AF
:1006B0008F8198850E94331318164CF520E030E0A6
:1006C00040E251E469817A818B819C810E943713D9
:1006D000DC01CB01BC01CD010E94BA12DC01CB01CF
:1006E0009A8789870FC089E190E09C878B878B85EB
:1006F0009C850197F1F79C878B8789859A8501975F
:100700009A87898789859A85892B69F714C06D81B5
:100710007E818F8198850E94BA12DC01CB019A8775
:10072000898789859A859E878D878D859E85019786
:10073000F1F79E878D8785E290E025E230E0F901B0
:1007400020812160FC01208385E290E025E230E0F9
:10075000F90120812061FC01208300002E960FB654
:10076000F894DEBF0FBECDBFDF91CF910895CF9338
:10077000DF931F92CDB7DEB7898385E290E025E253
:1007800030E0F90120812D7FFC01208389811CDF6D
:1007900000000F90DF91CF910895CF93DF931F92C8
:1007A000CDB7DEB7898385E290E025E230E0F9013C
:1007B00020812260FC012083898106DF00000F90E8
:1007C000DF91CF910895CF93DF931F92CDB7DEB71E
:1007D000898381E2CCDF89818068C9DF80E2C7DF5D
:1007E0008CE0C5DF00000F90DF91CF910895CF938B
:1007F000DF9300D0CDB7DEB7198266C080910204C6
:1008000090910304FC018181282F30E08981882F99
:1008100090E00196880F991F880F991F880F991FE4
:10082000281739070CF04CC0809102049091030402
:10083000FC018381282F30E08981882F90E0880F88
:10084000991F880F991F880F991F281739070CF4D3
:1008500040C0898180648BDF809102049091030401
:10086000FC018081806883DF809102049091030401
:10087000FC0180818A831AC08091F1039091F20378
:100880002981222F30E064E5629FA001639F500D13
:1008900011242A81222F30E0240F351F820F931F4D
:1008A000FC0180817ADF8A818F5F8A8380910204D4
:1008B00090910304FC0192818A819817E8F601C0A7
:1008C000000089818F5F89838981863008F496CF03
:1008D00001C000007FD000000F900F90DF91CF91FA
:1008E0000895CF93DF93CDB7DEB797DE81E23FDF88
:1008F00082E13DDF80ED3BDF80E239DF8CE037DFF6
:100900000000DF91CF910895CF93DF9300D000D006
:10091000CDB7DEB789836A834B832C838981843585
:1009200010F083E589838B81843510F083E58B8318
:100930008A81803310F08FE28A838C81803310F0BB
:100940008FE28C838091020490910304FC019081DA
:100950008981891738F480910204909103042981D8
:10096000FC0120838091020490910304FC01928198
:100970008B81981738F480910204909103042B81A5
:10098000FC0122838091020490910304FC01918177
:100990008A81891738F480910204909103042A8196
:1009A000FC0121838091020490910304FC01938156
:1009B0008C81981738F480910204909103042C8163
:1009C000FC01238300000F900F900F900F90DF9198
:1009D000CF910895CF93DF93CDB7DEB78091020416
:1009E0009091030423E5FC012083809102049091FF
:1009F0000304FC01128280910204909103042FE20F
:100A0000FC0121838091020490910304FC01138274
:100A10000000DF91CF910895CF93DF93CDB7DEB77C
:100A20008091F1039091F20348EF51E060E070E0B3
:100A30000E943E142FE243E560E080E065DFD7DEF0
:100A40000000DF91CF910895CF93DF93CDB7DEB74C
:100A50008091F1039091F20348EF51E060E070E083
:100A60000E943E142FE243E560E080E04DDF00008D
:100A7000DF91CF910895CF93DF9300D000D0CDB711
:100A8000DEB79A8389837C836B8389819A81909373
:100A9000F2038093F1038B819C81909303048093F4
:100AA000020400000F900F900F900F90DF91CF91F4
:100AB00008950F93CF93DF9300D000D000D0CDB72F
:100AC000DEB79A8389836B834C832D830E83898160
:100AD0009A819093F8038093F7038B818093F903B5
:100AE0008C818093FA038D818093FB038E818093A8
:100AF000FC031092FE031092FD03000026960FB631
:100B0000F894DEBF0FBECDBFDF91CF910F91089556
:100B1000CF93DF93CDB7DEB727970FB6F894DEBF3C
:100B20000FBECDBF8D836E834F838091FA038830D3
:100B300008F09AC09091FB038F81891728F090915B
:100B4000FC038F81981710F48EE28F838E81282FFB
:100B500030E08091FA03882F90E0AC014F5F5F4F47
:100B600080E390E0BA010E94C213CB012817390735
:100B70000CF07CC08D81282F30E08091F903882F04
:100B800090E0820F931F843591050CF071C08E8127
:100B9000882F90E00196282F8091FA03882F90E00B
:100BA0000196289F202D11249091F9038D81392FD2
:100BB000380F8091FA03882F90E00196982F8E814C
:100BC000989F802D1124432F682F8D819DDE1982DF
:100BD00044C08091F1039091F2032D81422F50E0A7
:100BE0002E81622F70E0E4E5E69F9001E79F300DD3
:100BF0001124240F351F820F931F4091F70350914A
:100C0000F8032F81622F70E02091FB03222F30E048
:100C1000621B730B2091F903222F30E0629FF001D9
:100C2000639FF00D729FF00D1124BF012981222FC7
:100C300030E0260F371F240F351F3B832A832A817C
:100C40003B81F90124912C832C81FC0120838D812F
:100C50008F5F8D8389818F5F89839091F90389816B
:100C6000891708F4B6CF05C0000003C0000001C01A
:100C7000000027960FB6F894DEBF0FBECDBFDF9100
:100C8000CF910895CF93DF9300D000D0CDB7DEB7DA
:100C900089836A835C834B838091FA03883008F0F0
:100CA0003FC037C08B819C819C012F5F3F4F3C83AD
:100CB0002B83FC018081482F6A81898129DF9091F3
:100CC000F9038981890F8F5F89838981282F30E01B
:100CD0008091F903882F90E0820F931F019685354C
:100CE000910524F019828A818F5F8A838A81282F57
:100CF00030E08091FA03882F90E0AC014F5F5F4FA6
:100D000080E390E0BA010E94C213CB012817390793
:100D10004CF48B819C81FC018081882319F603C0EF
:100D2000000001C000000F900F900F900F90DF9116
:100D3000CF910895CF93DF9300D01F92CDB7DEB748
:100D400089836A834B838981843508F07BC08A81DB
:100D5000803308F077C08B818823B9F18981282FEF
:100D600030E08A81682F669566956695462F50E03B
:100D700074E5749FC001759F900D1124820F931F1D
:100D80002981422F50E0662F70E0E4E5E69F900154
:100D9000E79F300D1124240F351F27503E4FF901D6
:100DA0002081622F2A81222F30E0A9014770552728
:100DB00021E030E002C0220F331F4A95E2F7262BD4
:100DC00087509E4FFC01208337C08981282F30E057
:100DD0008A81682F669566956695462F50E074E582
:100DE000749FC001759F900D1124820F931F29815C
:100DF000422F50E0662F70E0E4E5E69F9001E79F08
:100E0000300D1124240F351F27503E4FF90120814A
:100E1000622F2A81222F30E0A9014770552721E057
:100E200030E002C0220F331F4A95E2F720952623B7
:100E300087509E4FFC0120832A8149816A818981E4
:100E400063DD01C000000F900F900F90DF91CF91F4
:100E500008950F93CF93DF93CDB7DEB72E970FB6DC
:100E6000F894DEBF0FBECDBF8A876B874C872D8776
:100E70000E878D85282F30E08B85882F90E0A90183
:100E8000481B590BCA0199231CF49195819591092E
:100E9000AC018C85282F30E08A85882F90E0B9013D
:100EA000681B790BCB0199231CF4919581959109CD
:100EB00021E0841795070CF020E02B838B81882399
:100EC00061F08A858C838B858A878C818B878C8562
:100ED0008D838D858C878D818D879A858C858917EB
:100EE00060F48A858E838C858A878E818C878B853A
:100EF0008F838D858B878F818D872D854C856B8525
:100F00008A8502DD9C858A85792F781B872F8887C3
:100F10008D85282F30E08B85882F90E0A901481B14
:100F2000590BCA0199231CF49195819591098987E0
:100F30008885869589839B858D85981718F481E02F
:100F40008A8323C08FEF8A8320C08B81882329F076
:100F50004E856A858B85EEDE04C04E856B858A855D
:100F6000E9DE99818985592F581B852F89838981CD
:100F7000882344F48A819B85890F8B879981888592
:100F8000890F89838A858F5F8A879A858C858917DF
:100F9000E0F600002E960FB6F894DEBF0FBECDBF70
:100FA000DF91CF910F910895CF93DF9300D000D0C0
:100FB000CDB7DEB769837A838B839C8389819A81DD
:100FC000AB81BC8180932C0190932D01A0932E01C5
:100FD000B0932F0180912C0190912D01A0912E01B1
:100FE000B0912F018093EB019093EC01A093ED0160
:100FF000B093EE0100000F900F900F900F90DF91D3
:10100000CF910895CF93DF93CDB7DEB781E890E01D
:101010002BE0FC01208388E890E02DE730E0FC0124
:10102000318320838FE690E022E0FC01208384E876
:1010300090E0FC011182108280912C0190912D0191
:10104000A0912E01B0912F018093EB019093EC01C0
:10105000A093ED01B093EE018FE590E02FE530E035
:10106000F90120812068FC0120830000DF91CF91ED
:101070000895CF93DF93CDB7DEB781E08093EA0187
:101080000000DF91CF9108951F920F9200905F00B2
:101090000F92112400905B000F922F933F934F9378
:1010A0005F936F937F938F939F93AF93BF93EF93D0
:1010B000FF93CF93DF93CDB7DEB78091EB01909193
:1010C000EC01A091ED01B091EE010197A109B109E8
:1010D0008093EB019093EC01A093ED01B093EE01AE
:1010E0008091EB019091EC01A091ED01B091EE01A6
:1010F000892B8A2B8B2B89F4BCDF80912C0190915A
:101100002D01A0912E01B0912F018093EB019093BE
:10111000EC01A093ED01B093EE010000DF91CF91BF
:10112000FF91EF91BF91AF919F918F917F916F91BF
:101130005F914F913F912F910F9000925B000F9024
:1011400000925F000F901F901895CF93DF9300D00F
:1011500000D0CDB7DEB71A82198282E290E022E297
:1011600030E0F90120812260FC01208382E290E0DE
:1011700022E230E0F90120812160FC01208382E23B
:1011800090E022E230E0F90120812D7FFC012083F4
:1011900080E290E0FC018081882F90E0809590951E
:1011A0008470992795958795959587959A838983D6
:1011B0001C821B8232C082E290E022E230E0F90120
:1011C00020812E7FFC01208389819A81880F991FBD
:1011D0009A83898380E290E0FC018081882F90E0EF
:1011E0008095909584709927959587959595879585
:1011F0009C0189819A81822B932B9A83898382E235
:1012000090E022E230E0F90120812160FC0120839E
:101210008B819C8101969C838B838B819C814097E1
:1012200054F289819A810F900F900F900F90DF9167
:10123000CF9108950F93CF93DF93CDB7DEB764D9E5
:1012400082EDC1DA0FE720E247E065E08CE890E04C
:1012500030DCFADB42E951E060E08FE013DD01E0D1
:1012600027E046E467E08CE0F4DD4CE951E062E021
:101270008AE008DD48EA51E064E082E103DDB7DAA4
:1012800032D827D861EB71E081E0A1D884E1C9D8D8
:101290000000DF91CF910F9108950F931F93CF938B
:1012A000DF93CDB7DEB7C35AD1090FB6F894DEBFCE
:1012B0000FBECDBF4ADF9B838A830E9430148370A8
:1012C0009078992324F401978C6F9F6F01969D83EA
:1012D0008C831F821E8281E090E00E948D14882FF3
:1012E00090E09093F6038093F5038091F30390913F
:1012F000F40382309105F9F08330910528F40097CA
:1013000059F00197A9F033C68330910509F4BBC5A4
:10131000049709F406C62BC61092F0011092EF0153
:101320001092F3011092F20185E0809330011FC604
:1013300080E277D81CC68C819D81892B31F481E0B5
:101340008093F10181E0898318C08C819D81019790
:1013500029F482E08093F10119820FC08C819D8174
:10136000029731F483E08093F10182E0898305C024
:1013700084E08093F10183E089838091F001882FDC
:1013800090E09E012A573F4F4AE050E0B9010E9489
:101390005014CE0186569F4F28E0E9ECF1E0DC01C5
:1013A00001900D922A95E1F7FC01118610869E01AD
:1013B0002A573F4FCE0186569F4FB9010E944514D0
:1013C000CE0186569F4FBC0181E001D88C819D8162
:1013D000892B09F0E9C081E124D880E090E4ACE9F0
:1013E000B5E48C879D87AE87BF8720E030E04AE771
:1013F00053E46C857D858E859F850E943713DC01C3
:10140000CB018EAB9FABA8AFB9AF20E030E040E896
:101410005FE36EA97FA988AD99AD0E94B6128823BB
:101420002CF481E090E09BAF8AAF3FC020E03FEF1B
:101430004FE757E46EA97FA988AD99AD0E94331399
:1014400018164CF520E030E040E251E46C857D85D3
:101450008E859F850E943713DC01CB01BC01CD0135
:101460000E94BA12DC01CB019BAF8AAF0FC089E1A9
:1014700090E09DAF8CAF8CAD9DAD0197F1F79DAF26
:101480008CAF8AAD9BAD01979BAF8AAF8AAD9BAD08
:10149000892B69F714C06EA97FA988AD99AD0E9408
:1014A000BA12DC01CB019BAF8AAF8AAD9BAD9FAF77
:1014B0008EAF8EAD9FAD0197F1F79FAF8EAF898153
:1014C0000E94B80180E090E6AAE6B5E488A799A753
:1014D000AAA7BBA720E030E04AE753E468A579A5B6
:1014E0008AA59BA50E943713DC01CB018CA79DA781
:1014F000AEA7BFA720E030E040E85FE36CA57DA584
:101500008EA59FA50E94B61288232CF481E090E05E
:1015100099AB88AB3EC020E03FEF4FE757E46CA5A6
:101520007DA58EA59FA50E94331318164CF520E0CB
:1015300030E040E251E468A579A58AA59BA50E9408
:101540003713DC01CB01BC01CD010E94BA12DC01D2
:10155000CB0199AB88AB0FC089E190E09BAB8AAB24
:101560008AA99BA90197F1F79BAB8AAB88A999A996
:10157000019799AB88AB88A999A9892B69F766C4AB
:101580006CA57DA58EA59FA5F5D7DC01CB0199ABF8
:1015900088AB88A999A99DAB8CAB8CA99DA9019713
:1015A000F1F79DAB8CAB52C48C819D81019709F002
:1015B0006EC186E10E94110280E090E4ACE9B5E4DE
:1015C0008C8B9D8BAE8BBF8B8E01065B1F4F20E0FB
:1015D00030E04AE753E46C897D898E899F890E94B7
:1015E0003713DC01CB01F80180839183A283B3839D
:1015F000CE01865B9F4F20E030E040E85FE3FC01D6
:101600006081718182819381B1D788234CF4CE01AE
:10161000825B9F4F21E030E0FC013183208367C073
:10162000CE01865B9F4F20E03FEF4FE757E4FC0180
:1016300060817181828193810E94331318160CF0AE
:1016400045C020E030E040E251E46C897D898E891C
:101650009F890E943713DC01CB018E01025B1F4F73
:10166000BC01CD0187D7DC01CB01F80191838083D8
:1016700024C0CE01805B9F4F29E130E0FC01318323
:101680002083CE01805B9F4FFC0180819181019777
:10169000F1F79E01205B3F4FF90191838083CE01DA
:1016A000825B9F4F9E01225B3F4FF9012081318178
:1016B00021503109FC0131832083CE01825B9F4F91
:1016C000FC0180819181892BA1F62BC08E01025BE8
:1016D0001F4FCE01865B9F4FFC016081718182812B
:1016E000938148D7DC01CB01F80191838083CE013F
:1016F0008E5A9F4F9E01225B3F4FF901208131811D
:10170000FC0131832083CE018E5A9F4FFC018081E2
:1017100091810197F1F79E012E5A3F4FF901918374
:10172000808389810E94B80180E090E6AAE6B5E452
:1017300088879987AA87BB878E01005C1F4F20E0AE
:1017400030E04AE753E4688579858A859B858FD7A1
:10175000DC01CB01F80180839183A283B383CE01A6
:10176000805C9F4F20E030E040E85FE3FC01608157
:10177000718182819381FAD688234CF4CE018C5BEF
:101780009F4F21E030E0FC013183208365C0CE0112
:10179000805C9F4F20E03FEF4FE757E4FC01608102
:1017A0007181828193815FD718160CF044C020E0CC
:1017B00030E040E251E4688579858A859B8557D77A
:1017C000DC01CB018E010C5B1F4FBC01CD01D2D6D9
:1017D000DC01CB01F8019183808324C0CE018A5BB8
:1017E0009F4F29E130E0FC0131832083CE018A5BE9
:1017F0009F4FFC01808191810197F1F79E012A5B47
:101800003F4FF90191838083CE018C5B9F4F9E01F6
:101810002C5B3F4FF9012081318121503109FC01BE
:1018200031832083CE018C5B9F4FFC0180819181AD
:10183000892BA1F60BC38E010C5B1F4FCE01805C80
:101840009F4FFC01608171818281938193D6DC017D
:10185000CB01F80191838083CE01885B9F4F9E016D
:101860002C5B3F4FF90120813181FC0131832083C2
:10187000CE01885B9F4FFC01808191810197F1F738
:101880009E01285B3F4FF90191838083DFC28C81E9
:101890009D81029709F06BC18BE10E94110280E0EB
:1018A00090E4ACE9B5E48C8F9D8FAE8FBF8F8E0135
:1018B000025A1F4F20E030E04AE753E46C8D7D8DE3
:1018C0008E8D9F8DD4D6DC01CB01F801808391836E
:1018D000A283B383CE01825A9F4F20E030E040E8DC
:1018E0005FE3FC0160817181828193813FD688230F
:1018F0004CF4CE018E599F4F21E030E0FC01318342
:10190000208365C0CE01825A9F4F20E03FEF4FE712
:1019100057E4FC016081718182819381A4D61816FD
:101920000CF044C020E030E040E251E46C8D7D8D4D
:101930008E8D9F8D9CD6DC01CB018E010E591F4FE1
:10194000BC01CD0117D6DC01CB01F8019183808366
:1019500024C0CE018C599F4F29E130E0FC01318336
:101960002083CE018C599F4FFC018081918101978A
:10197000F1F79E012C593F4FF90191838083CE01ED
:101980008E599F4F9E012E593F4FF9012081318181
:1019900021503109FC0131832083CE018E599F4FA4
:1019A000FC0180819181892BA1F62BC08E010E59FB
:1019B0001F4FCE01825A9F4FFC016081718182814D
:1019C0009381D8D5DC01CB01F80191838083CE01CE
:1019D0008A599F4F9E012E593F4FF9012081318135
:1019E000FC0131832083CE018A599F4FFC01808105
:1019F00091810197F1F79E012A593F4FF901918397
:101A0000808389810E94B80180E090E6AAE6B5E46F
:101A1000888B998BAA8BBB8B8E010C5A1F4F20E0B1
:101A200030E04AE753E4688979898A899B891FD61F
:101A3000DC01CB01F80180839183A283B383CE01C3
:101A40008C5A9F4F20E030E040E85FE3FC0160816A
:101A50007181828193818AD588234CF4CE01885A82
:101A60009F4F21E030E0FC013183208365C0CE012F
:101A70008C5A9F4F20E03FEF4FE757E4FC01608115
:101A8000718182819381EFD518160CF044C020E05B
:101A900030E040E251E4688979898A899B89E7D5F9
:101AA000DC01CB018E01085A1F4FBC01CD0162D56C
:101AB000DC01CB01F8019183808324C0CE01865ADA
:101AC0009F4F29E130E0FC0131832083CE01865A0B
:101AD0009F4FFC01808191810197F1F79E01265A69
:101AE0003F4FF90191838083CE01885A9F4F9E0119
:101AF000285A3F4FF9012081318121503109FC01E1
:101B000031832083CE01885A9F4FFC0180819181CF
:101B1000892BA1F69BC18E01085A1F4FCE018C5A0A
:101B20009F4FFC01608171818281938123D5DC010B
:101B3000CB01F80191838083CE01845A9F4F9E018F
:101B4000285A3F4FF90120813181FC0131832083E4
:101B5000CE01845A9F4FFC01808191810197F1F75A
:101B60009E01245A3F4FF901918380836FC18C817C
:101B70009D81039709F06AC180E20E94110280E012
:101B800090E4ACE9B5E48CA39DA3AEA3BFA38E0102
:101B90000E581F4F20E030E04AE753E46CA17DA1CE
:101BA0008EA19FA164D5DC01CB01F80180839183D4
:101BB000A283B383CE018E589F4F20E030E040E8EF
:101BC0005FE3FC016081718182819381CFD488239E
:101BD0004CF4CE018A589F4F21E030E0FC01318364
:101BE000208365C0CE018E589F4F20E03FEF4FE726
:101BF00057E4FC01608171818281938134D518168C
:101C00000CF044C020E030E040E251E46CA17DA142
:101C10008EA19FA12CD5DC01CB018E010A581F4F4C
:101C2000BC01CD01A7D4DC01CB01F80191838083F5
:101C300024C0CE0188589F4F29E130E0FC01318358
:101C40002083CE0188589F4FFC01808191810197AC
:101C5000F1F79E0128583F4FF90191838083CE010F
:101C60008A589F4F9E012A583F4FF90120813181A8
:101C700021503109FC0131832083CE018A589F4FC6
:101C8000FC0180819181892BA1F62BC08E010A581D
:101C90001F4FCE018E589F4FFC0160817181828160
:101CA000938168D4DC01CB01F80191838083CE015C
:101CB00086589F4F9E012A583F4FF901208131815C
:101CC000FC0131832083CE0186589F4FFC01808127
:101CD00091810197F1F79E0126583F4FF9019183B9
:101CE000808389810E94B80180E090E6AAE6B5E48D
:101CF000888F998FAA8FBB8F8E0108591F4F20E0C4
:101D000030E04AE753E4688D798D8A8D9B8DAFD49E
:101D1000DC01CB01F80180839183A283B383CE01E0
:101D200088599F4F20E030E040E85FE3FC0160818C
:101D30007181828193811AD488234CF4CE01845915
:101D40009F4F21E030E0FC013183208365C0CE014C
:101D500088599F4F20E03FEF4FE757E4FC01608137
:101D60007181828193817FD418160CF044C020E0E9
:101D700030E040E251E4688D798D8A8D9B8D77D477
:101D8000DC01CB018E0104591F4FBC01CD01F2D300
:101D9000DC01CB01F8019183808324C0CE018259FC
:101DA0009F4F29E130E0FC0131832083CE0182592D
:101DB0009F4FFC01808191810197F1F79E0122598B
:101DC0003F4FF90191838083CE0184599F4F9E013B
:101DD00024593F4FF9012081318121503109FC0103
:101DE00031832083CE0184599F4FFC0180819181F2
:101DF000892BA1F62BC08E0104591F4FCE018859A3
:101E00009F4FFC016081718182819381B3D3DC019A
:101E1000CB01F80191838083CE0180599F4F9E01B1
:101E200024593F4FF90120813181FC013183208306
:101E3000CE0180599F4FFC01808191810197F1F77C
:101E40009E0120593F4FF901918380838091F001D9
:101E5000282F30E08091F5039091F60382179307C5
:101E600008F082C08091F001882F90E09093F603F3
:101E70008093F5038091F5039091F603682F81E03C
:101E800090E053D571C00E9473010E94690161ED19
:101E900071E081E00E94E70182E10E9411028091DD
:101EA000F5039091F6030A9740F48091F503909121
:101EB000F603805D0E94B80159C08091F5039091AE
:101EC000F6030A97A0F08091F5039091F6034497EA
:101ED00070F482E10E94110281E30E94B8018091B6
:101EE000F5039091F6038A5D0E94B8013FC080918E
:101EF000F5039091F6034497C8F18091F503909112
:101F0000F6034E9798F582E10E94110282E30E9447
:101F1000B8018091F5039091F603845E0E94B801A8
:101F200025C08091F001282F30E08091F503909139
:101F3000F6038217930770F48091F001882F90E0E8
:101F40009093F6038093F5038091F001682F81E070
:101F500090E0EBD40E9473010E9469016EED71E084
:101F600081E00E94E70103C0000001C000008091F1
:101F7000F3039091F40382309105E9F183309105E8
:101F800028F4009759F0019779F128C18330910521
:101F900009F44AC0049709F453C020C18A819B8187
:101FA00088279071892B39F082E090E09093F403B8
:101FB0008093F3030EC18A819B8188279072892BBD
:101FC00009F007C18A819B8180749927892B39F098
:101FD00083E090E09093F4038093F303FAC01092AF
:101FE000F4031092F303F5C082E090E09093F403C1
:101FF0008093F303F3C08091EF01853038F482E0E1
:1020000090E09093F4038093F303E5C08091EF0197
:10201000863008F4E0C01092EF0184E090E09093E5
:10202000F4038093F303D7C08A819B81807499273E
:10203000892B09F4D2C01092F4031092F303CDC09F
:102040008A819B8180789927892B51F061EB71E01F
:1020500081E00E94E7011092F4031092F30306C09E
:1020600084E090E09093F4038093F30380E090E0A9
:10207000A8ECB2E488A399A3AAA3BBA38E01045839
:102080001F4F20E030E04AE753E468A179A18AA11C
:102090009BA1EDD2DC01CB01F80180839183A28367
:1020A000B383CE0184589F4F20E030E040E85FE3E7
:1020B000FC01608171818281938158D288234CF424
:1020C000CE0180589F4F21E030E0FC013183208316
:1020D00065C0CE0184589F4F20E03FEF4FE757E4A3
:1020E000FC016081718182819381BDD218160CF050
:1020F00044C020E030E040E251E468A179A18AA127
:102100009BA1B5D2DC01CB018E0100581F4FBC0151
:10211000CD0130D2DC01CB01F8019183808324C052
:10212000CE018E579F4F29E130E0FC01318320839F
:10213000CE018E579F4FFC01808191810197F1F76D
:102140009E012E573F4FF90191838083CE01805825
:102150009F4F9E0120583F4FF9012081318121502E
:102160003109FC0131832083CE0180589F4FFC014F
:1021700080819181892BA1F631C08E0100581F4FBB
:10218000CE0184589F4FFC016081718182819381CF
:10219000F1D1DC01CB01F80191838083CE018C5712
:1021A0009F4F9E0120583F4FF90120813181FC0152
:1021B00031832083CE018C579F4FFC018081918118
:1021C0000197F1F79E012C573F4FF90191838083CE
:1021D00005C0000003C0000001C000000000CD5594
:1021E000DF4F0FB6F894DEBF0FBECDBFDF91CF91AA
:1021F0001F910F910895CF93DF9300D0CDB7DEB735
:1022000081E090E08AD3882F90E09093F60380934A
:10221000F5030E94A5089A83898380910404909114
:1022200005048230910509F48DC08330910530F4A6
:10223000009779F0019709F47EC099C08430910528
:1022400009F48EC08430910508F483C00597D1F15C
:102250008EC089819A8188279870892B39F081E016
:1022600090E0909305048093040486C089819A814C
:1022700088279470892B39F082E090E090930504D0
:102280008093040479C089819A8188279270892B70
:1022900039F083E090E090930504809304046CC0CF
:1022A00089819A8188279170892B39F084E090E0A8
:1022B00090930504809304045FC01092050410926B
:1022C00004045AC089819A8188279870892B39F033
:1022D00081E090E090930504809304044DC08981CF
:1022E0009A8188279470892B39F082E090E090934E
:1022F00005048093040440C089819A8188279270E4
:10230000892B39F083E090E09093050480930404D6
:1023100033C089819A8188279170892B39F084E0B4
:1023200090E0909305048093040426C01092050465
:102330001092040421C085E090E0909305048093FE
:1023400004041AC085E090E090930504809304048F
:1023500013C085E090E090930504809304040CC0C2
:1023600085E090E0909305048093040405C01092EA
:102370000504109204040000809104049091050467
:1023800082309105C1F08330910528F4009761F007
:10239000019769F01DC084309105A9F08430910542
:1023A00070F00597A1F014C01092F40111C082E002
:1023B0008093F4010DC083E08093F40109C081E0B3
:1023C0008093F40105C084E08093F40101C0000013
:1023D00000000F900F90DF91CF910895CF93DF937E
:1023E000CDB7DEB78091000490910104009719F0F9
:1023F000019741F00CC081E090E09093010480933C
:10240000000405C0109201041092000400008091A5
:10241000000490910104009719F00197C1F02EC0BB
:102420009091F4018091F101981731F48091F001BD
:102430008F5F8093F00122C08091EF018F5F8093C6
:10244000EF018091300181508093300117C090914D
:10245000F4018091F101981731F48091F0018F5FC0
:102460008093F0010AC08091EF018F5F8093EF01AC
:102470008091300181508093300100000000DF9195
:10248000CF9108950F93CF93DF93CDB7DEB781E25D
:1024900090E023E0FC01208382E290E0FC011082C6
:1024A00084E290E02FEFFC01208385E290E0FC01C4
:1024B000108287E290E02FEFFC01208388E290E019
:1024C000FC0110828AE290E02FEFFC0120838BE276
:1024D00090E0FC01108280E090E00E945601DC0157
:1024E000CB01C1D181E090E0A0E0B0E0BC01CD0122
:1024F0000E94D4070E9402080E9484020FE720E293
:1025000047E065E08CE890E00E9459050E942405B0
:102510000E9473010E94690181E00E9411020E94E1
:102520001A0964E071E080E00E9456026CE071E0FC
:1025300081E00E94560264E171E082E00E9456024E
:102540006CE171E083E00E94560264E271E084E095
:102550000E9456020E944D094EDE40DF000080912D
:10256000EA018823E1F31092EA01F4CF2FD008F4B6
:1025700081E0089557D088F09F5790F0B92F9927A0
:10258000B751A0F0D1F0660F771F881F991F1AF07E
:10259000BA95C9F712C0B13081F05ED0B1E00895AC
:1025A0005BC0672F782F8827B85F39F0B93FCCF32D
:1025B000869577956795B395D9F73EF49095809574
:1025C000709561957F4F8F4F9F4F0895990F000829
:1025D000550FAA0BE0E8FEEF16161706E807F907F5
:1025E000C0F012161306E407F50798F0621B730B90
:1025F000840B950B39F40A2661F0232B242B252B11
:1026000021F408950A2609F4A140A6958FEF811DB3
:10261000811D089557FD9058440F551F59F05F3F95
:1026200071F04795880F97FB991F61F09F3F79F0F4
:1026300087950895121613061406551FF2CF469576
:10264000F1DF08C0161617061806991FF1CF8695F8
:102650007105610508940895E894BB2766277727DC
:10266000CB0197F90895B2DF08F48FEF08950BD0EE
:1026700078C069D028F06ED018F0952309F05AC0C0
:102680005FC01124EACFC6DFA0F3959FD1F3950F69
:1026900050E0551F629FF001729FBB27F00DB11DE6
:1026A000639FAA27F00DB11DAA1F649F6627B00D76
:1026B000A11D661F829F2227B00DA11D621F739F5F
:1026C000B00DA11D621F839FA00D611D221F749F6D
:1026D0003327A00D611D231F849F600D211D822FB4
:1026E000762F6A2F11249F5750408AF0E1F08823FB
:1026F0004AF0EE0FFF1FBB1F661F771F881F915008
:102700005040A9F79E3F510570F014C0A6CF5F3F1F
:10271000ECF3983EDCF3869577956795B795F7953A
:10272000E7959F5FC1F7FE2B880F911D96958795C2
:1027300097F9089597F99F6780E870E060E0089541
:102740009FEF80EC089500240A94161617061806C9
:102750000906089500240A941216130614060506A5
:102760000895092E0394000C11F4882352F0BB0F36
:1027700040F4BF2B11F460FF04C06F5F7F4F8F4F99
:102780009F4F089597FB072E16F4009406D077FD0F
:1027900008D00BD007FC05D03EF4909581959F4F53
:1027A0000895709561957F4F0895AA1BBB1B51E159
:1027B00007C0AA1FBB1FA617B70710F0A61BB70BB1
:1027C000881F991F5A95A9F780959095BC01CD0156
:1027D00008958F929F92AF92BF92CF92DF92EF9225
:1027E000FF92CF93DF93EC01688179818A819B818D
:1027F000611571058105910521F464E279ED8BE5A0
:1028000097E02DE133EF41E050E0A1D049015A01BA
:102810009B01AC01A7EAB1E4B6D06B017C01ACEE40
:10282000B4EFA5019401BBD0DC01CB018C0D9D1D43
:10283000AE1DBF1DB7FF03C00197A109B048888333
:102840009983AA83BB839F77DF91CF91FF90EF900D
:10285000DF90CF90BF90AF909F908F900895B9CFA9
:1028600080E091E0B6CFA0E0B0E0809300019093CB
:102870000101A0930201B09303010895DC0101C09E
:102880006D9341505040E0F70895FB01DC010D903D
:102890000020E9F7119701900D920020E1F70895CB
:1028A0004532510518F4423008F004C0FB01108293
:1028B000CB010895BB274A3031F4992322F4BDE2BD
:1028C000909581959F4F01C0BB27FB015527AA27F3
:1028D000880F991FAA1FA41710F0A41B83955051AD
:1028E000B9F7A05DAA3308F0A95DA193009779F725
:1028F000B111B1931192CB0100C0DC01FC01672F33
:1029000071917723E1F7329704C07C916D937083C6
:102910006291AE17BF07C8F30895F999FECF92BD33
:1029200081BDF89A992780B50895262FF999FECF91
:1029300092BD81BDF89A019700B4021639F01FBA12
:1029400020BD0FB6F894FA9AF99A0FBE0895052E95
:1029500097FB16F400940FD057FD05D024D007FC48
:1029600002D046F408C050954095309521953F4FD0
:102970004F4F5F4F089590958095709561957F4F6B
:102980008F4F9F4F089531D0A59F900DB49F900D0C
:10299000A49F800D911D11240895B7FFF4CFF3DF9C
:1029A000821B930B0895A1E21A2EAA1BBB1BFD01EB
:1029B0000DC0AA1FBB1FEE1FFF1FA217B307E4071E
:1029C000F50720F0A21BB30BE40BF50B661F771F76
:1029D000881F991F1A9469F7609570958095909556
:1029E0009B01AC01BD01CF010895A29FB001B39F2F
:1029F000C001A39F700D811D1124911DB29F700D08
:0C2A0000811D1124911D0895F894FFCF52
:102A0C000100000000040E15150404041F00040846
:102A1C001F0804000004040415150E041F00040212
:102A2C001F020400000A1F1F0E040000010000001A
:102A3C0005256400313233003435360048656C6C42
:102A4C006F20576F726C64210052454354414E47BE
:102A5C004C452044454D4F00676C63645F64726164
:102A6C00775F7265637400676C63645F647261772F
:102A7C005F726563745F746869636B00676C636431
:102A8C005F647261775F726563745F736861646FB2
:102A9C0077004D61696E204D656E7500506C6179E3
:102AAC00285354415254290053636F726528582996
:102ABC000057656C636F6D6520746F205461696B92
:102ACC006F204D616E6961210053636F72653A200E
:102ADC0000486967682053636F72653A200047614C
:0A2AEC006D65204F76657221210010
:00000001FF
